:100000000C942A000C9447000C9447000C94860A28
:100010000C94330B0C9447000C94180A0C944F0A60
:100020000C94F60A0C94BC0A0C9447000C947507C7
:100030000C9447000C9447000C9447000C94470024
:100040000C9447000C9447000C9447000C94E20970
:100050000C94470011241FBECFE5D4E0DEBFCDBF16
:1000600011E0A0E6B0E0E0EDF8E302C005900D92EB
:10007000A837B107D9F711E0A8E7B1E001C01D9298
:10008000A539B107E1F70E9401180C94661C0C9485
:100090000000EF92FF920F931F937B018C0120E0F1
:1000A00030E040E05FE40E94F50388238CF0C80153
:1000B000B70120E030E040E05FE40E94C1010E940F
:1000C000B3049B01AC01205030404040504806C072
:1000D000C801B7010E94B3049B01AC01B901CA0178
:1000E0001F910F91FF90EF900895A0E0B0E0EBE733
:1000F000F0E00C942F1CDC012B01FA019C91923052
:1001000008F439C1EB018881823008F433C194309E
:1001100069F4843009F02FC111969C91119789815F
:10012000981709F428C1A0E6B0E025C1843009F48D
:1001300021C18230A9F4923009F01DC19A01AD01AC
:1001400088E0EA010990AE01E90109929E0181501F
:10015000C1F7E201898111969C918923818308C1AD
:10016000923009F407C112962D903C901397EB0141
:100170008A819B811496AD90BD90CD90DC901797AD
:10018000EC80FD800E811F819101281B390BB90184
:1001900037FF04C066277727621B730B6032710537
:1001A0000CF061C0121613066CF537014801062EDB
:1001B00004C096948794779467940A94D2F721E0C8
:1001C00030E040E050E004C0220F331F441F551FB1
:1001D0006A95D2F721503040404050402E213F21B7
:1001E00040235123211531054105510521F021E01E
:1001F00030E040E050E079018A01E628F72808293C
:1002000019293CC0232BD1F1260E371E350146019A
:10021000062E04C096948794779467940A94D2F734
:1002200021E030E040E050E004C0220F331F441FC3
:10023000551F6A95D2F721503040404050402A2146
:100240003B214C215D21211531054105510521F04E
:1002500021E030E040E050E059016A01A628B728CB
:10026000C828D9280BC0821593052CF01C01AA249C
:10027000BB24650103C0EE24FF24870111969C91E5
:10028000D20111968C91981709F445C0992339F041
:10029000A80197012A193B094C095D0906C0A6016E
:1002A00095012E193F09400B510B57FD08C01182D3
:1002B0003382228224833583468357831DC081E0A5
:1002C00081833382228288279927DC01821B930B4A
:1002D000A40BB50B84839583A683B7830DC0220F2F
:1002E000331F441F551F24833583468357838281E0
:1002F000938101979383828324813581468157813D
:10030000DA01C9010197A109B1098F5F9F4FAF4F72
:10031000BF4328F30BC0918333822282EA0CFB1C7B
:100320000C1D1D1DE482F5820683178383E0808304
:10033000248135814681578157FF1AC0C901AA27F8
:1003400097FDA095BA2F81709070A070B0705695EF
:10035000479537952795822B932BA42BB52B848318
:100360009583A683B7838281938101969383828349
:10037000DF0101C0D201CD01CDB7DEB7E2E10C94BF
:100380004B1CA0E2B0E0E7ECF1E00C943B1C69836D
:100390007A838B839C832D833E834F835887E9E048
:1003A000EE2EF12CEC0EFD1ECE010196B7010E943F
:1003B000A4068E010F5E1F4FCE010596B8010E9464
:1003C000A4068A8991E089278A8BC701B801AE010A
:1003D000475E5F4F0E9475000E94CF05A096E6E041
:1003E0000C94571CA0E2B0E0E8EFF1E00C943B1C49
:1003F00069837A838B839C832D833E834F835887C5
:10040000F9E0EF2EF12CEC0EFD1ECE010196B701A6
:100410000E94A4068E010F5E1F4FCE010596B80103
:100420000E94A406C701B801AE01475E5F4F0E945B
:1004300075000E94CF05A096E6E00C94571CA0E240
:10044000B0E0E5E2F2E00C942F1C69837A838B83A1
:100450009C832D833E834F835887CE010196BE0136
:10046000675F7F4F0E94A406CE010596BE016F5EB6
:100470007F4F0E94A4069985923088F08989823046
:10048000C8F0943019F4823051F404C0843029F457
:10049000923081F480E690E0C6C0923049F420E0CA
:1004A0009A858A89981321E02A87CE010996BBC0D4
:1004B000823049F420E09A858A89981321E02A8BBA
:1004C000CE014196B0C02D843E844F8458886D88FB
:1004D0007E888F88988CEE24FF248701AA24BB2471
:1004E000650140E050E060E070E0E0E0F0E0C10174
:1004F00081709070892BE9F0E60CF71C081D191D1E
:100500009A01AB012A0D3B1D4C1D5D1D80E090E062
:10051000A0E0B0E0E614F7040805190520F481E036
:1005200090E0A0E0B0E0BA01A901480F591F6A1F8E
:100530007B1FAA0CBB1CCC1CDD1C97FE08C081E0F5
:1005400090E0A0E0B0E0A82AB92ACA2ADB2A3196B6
:10055000E032F10549F0660C771C881C991C569412
:10056000479437942794C3CFFA85EA892B893C892D
:100570008B859C85280F391F2E5F3F4F17C0CA01FE
:1005800081709070892B61F016950795F794E79428
:1005900080E090E0A0E0B0E8E82AF92A0A2B1B2BC3
:1005A00076956795579547952F5F3F4F77FDE7CF36
:1005B0000CC0440F551F661F771F17FD4160EE0CDE
:1005C000FF1C001F111F21503040403090E05907A0
:1005D00090E0690790E4790760F32B8F3C8FDB0193
:1005E000CA018F779070A070B07080349105A1051A
:1005F000B10561F447FD0AC0E114F10401051105DC
:1006000029F0405C5F4F6F4F7F4F40781A8EFE1786
:1006100011F081E08A8F4D8F5E8F6F8F78A383E01A
:10062000898FCE0149960E94CF05A096E2E10C94F5
:100630004B1CA8E1B0E0EFE1F3E00C94371C6983B8
:100640007A838B839C832D833E834F835887B9E0C5
:10065000EB2EF12CEC0EFD1ECE010196B7010E948F
:10066000A4068E010F5E1F4FCE010596B8010E94B1
:10067000A4062985223008F47EC03989323010F46E
:10068000B8017CC08A859A8989278A87243011F02D
:10069000223031F4231709F06EC060E670E06EC0BE
:1006A000343039F41D861E861F86188A1C861B86E8
:1006B00004C0323021F484E08987B7015FC02B8504
:1006C0003C858B899C89281B390B3C872B87ED84C3
:1006D000FE840F851889AD88BE88CF88D88CEA142F
:1006E000FB040C051D0540F4EE0CFF1C001F111F40
:1006F000215030403C872B8720E030E040E050E044
:1007000080E090E0A0E0B0E460E070E0EA14FB0478
:100710000C051D0540F0282B392B4A2B5B2BEA18C2
:10072000FB080C091D09B695A79597958795EE0CC2
:10073000FF1C001F111F6F5F7F4F6F31710531F775
:10074000DA01C9018F779070A070B0708034910584
:10075000A105B10561F427FD0AC0E114F10401050A
:10076000110529F0205C3F4F4F4F5F4F20782D87B8
:100770003E874F87588BBE01675F7F4FCB010E943A
:10078000CF056896EAE00C94531CA8E1B0E0EBECCE
:10079000F3E00C943B1C69837A838B839C832D83C9
:1007A0003E834F83588789E0E82EF12CEC0EFD1E26
:1007B000CE010196B7010E94A4068E010F5E1F4F65
:1007C000CE010596B8010E94A4068985823040F0CA
:1007D0008989823028F0C701B8010E941C0701C036
:1007E0008FEF6896E6E00C94571CA8E1B0E0EBEFC1
:1007F000F3E00C943B1C69837A838B839C832D8369
:100800003E834F83588789E0E82EF12CEC0EFD1EC5
:10081000CE010196B7010E94A4068E010F5E1F4F04
:10082000CE010596B8010E94A4068985823040F069
:100830008989823028F0C701B8010E941C0701C0D5
:100840008FEF6896E6E00C94571CA8E1B0E0EBE26D
:10085000F4E00C943B1C69837A838B839C832D8307
:100860003E834F83588789E0E82EF12CEC0EFD1E65
:10087000CE010196B7010E94A4068E010F5E1F4FA4
:10088000CE010596B8010E94A4068985823040F009
:100890008989823028F0C701B8010E941C0701C075
:1008A00081E06896E6E00C94571CA8E0B0E0EBE528
:1008B000F4E00C94381C9B01AC0183E08983DA01DD
:1008C000C9018827B7FD83959927AA27BB27B82E8A
:1008D000211531054105510519F482E089833AC09B
:1008E0008823A9F0203080E0380780E0480780E8BE
:1008F000580729F460E070E080E09FEC30C0EE24FF
:10090000FF248701E21AF30A040B150B02C07901D8
:100910008A018EE1C82ED12CDC82CB82ED82FE8250
:100920000F831887C801B7010E9480050197181628
:10093000190684F4082E04C0EE0CFF1C001F111FC2
:100940000A94D2F7ED82FE820F831887C81AD90A5B
:10095000DC82CB82BA82CE0101960E94CF05289616
:10096000E9E00C94541CACE0B0E0E9EBF4E00C944A
:100970003F1C69837A838B839C83CE010196BE01E1
:100980006B5F7F4F0E94A4068D81823061F18230BF
:1009900050F1843021F48E81882351F12EC02F81B3
:1009A000388537FD20C06E812F3131051CF066235C
:1009B000F9F023C08EE190E0821B930B29853A85E4
:1009C0004B855C8504C056954795379527958A9544
:1009D000D2F76623B1F050954095309521953F4F61
:1009E0004F4F5F4F0EC020E030E040E050E009C0C4
:1009F0002FEF3FEF4FEF5FE704C020E030E040E033
:100A000050E8B901CA012C96E2E00C945B1CA8E006
:100A1000B0E0EDE0F5E00C94371C7B018C01611532
:100A200071058105910519F482E0898360C083E036
:100A300089838EE1C82ED12CDC82CB82ED82FE82AE
:100A40000F831887C801B7010E948005FC01319708
:100A5000F7FF3BC0222733272E1B3F0B57016801AE
:100A6000022E04C0D694C794B794A7940A94D2F7E0
:100A700040E050E060E070E081E090E0A0E0B0E0B5
:100A800004C0880F991FAA1FBB1F2A95D2F7019790
:100A9000A109B1098E219F21A023B1230097A105AF
:100AA000B10521F041E050E060E070E04A295B29A7
:100AB0006C297D294D835E836F8378878EE190E07A
:100AC0008E1B9F0B9C838B8312C0309781F00E2E60
:100AD00004C0EE0CFF1C001F111F0A94D2F7ED8218
:100AE000FE820F831887CE1ADF0ADC82CB821A823D
:100AF000CE0101960E94CF052896EAE00C94531C83
:100B0000EF92FF920F931F937B018C0180E0E81618
:100B100080E0F80681E0080780E0180788F48FEF8E
:100B2000E816F1040105110531F028F088E090E0A5
:100B3000A0E0B0E017C080E090E0A0E0B0E012C01C
:100B400080E0E81680E0F80680E0080781E01807FA
:100B500028F088E190E0A0E0B0E004C080E190E0FF
:100B6000A0E0B0E020E230E040E050E0281B390B8C
:100B70004A0B5B0B04C016950795F794E7948A958A
:100B8000D2F7F701E859FF4F8081281B310941094D
:100B90005109C9011F910F91FF90EF900895DF92C5
:100BA000EF92FF920F931F93FC01E480F580068182
:100BB0001781D1808081823048F480E090E0A0E10C
:100BC000B0E0E82AF92A0A2B1B2BA5C0843009F4CF
:100BD0009FC0823021F4EE24FF24870105C0E11478
:100BE000F1040105110519F4E0E0F0E096C062811E
:100BF00073819FEF623879070CF05BC022E83FEF0A
:100C0000261B370B2A3131052CF020E030E040E084
:100C100050E02AC0B801A701022E04C0769567955E
:100C2000579547950A94D2F781E090E0A0E0B0E0B4
:100C300004C0880F991FAA1FBB1F2A95D2F70197DE
:100C4000A109B1098E219F21A023B1230097A105FD
:100C5000B10521F081E090E0A0E0B0E09A01AB01A5
:100C6000282B392B4A2B5B2BDA01C9018F77907027
:100C7000A070B07080349105A105B10539F427FF4B
:100C800009C0205C3F4F4F4F5F4F04C0215C3F4F76
:100C90004F4F5F4FE0E0F0E02030A0E03A07A0E0E7
:100CA0004A07A0E45A0710F0E1E0F0E079018A0178
:100CB00027C06038710564F5FB01E158FF4FD8018A
:100CC000C7018F779070A070B07080349105A10536
:100CD000B10539F4E7FE0DC080E490E0A0E0B0E09B
:100CE00004C08FE390E0A0E0B0E0E80EF91E0A1F18
:100CF0001B1F17FF05C016950795F794E7943196CB
:100D000087E016950795F794E7948A95D1F705C083
:100D1000EE24FF248701EFEFF0E06E2F6795662742
:100D20006795902F9F77D794DD24D7948E2F869543
:100D3000492F462B582F5D29B701CA011F910F91EA
:100D4000FF90EF90DF900895FC01DB01408151811D
:100D50002281622F6F7770E0221F2227221F93814A
:100D6000892F880F822B282F30E0991F9927991FF0
:100D700011969C93119721153105A9F5411551053F
:100D80006105710511F482E037C082E89FEF139688
:100D90009C938E9312979A01AB0167E0220F331F49
:100DA000441F551F6A95D1F783E08C930DC0220F25
:100DB000331F441F551F12968D919C9113970197D5
:100DC00013969C938E931297203080E0380780E032
:100DD000480780E4580758F314962D933D934D939C
:100DE0005C93179708952F3F310579F4411551050C
:100DF0006105710519F484E08C93089564FF03C0C4
:100E000081E08C9312C01C9210C02F573040139673
:100E10003C932E93129783E08C9387E0440F551FE9
:100E2000661F771F8A95D1F7706414964D935D9372
:100E30006D937C93179708951F93DC01FB019C91A0
:100E4000923008F447C08081823008F443C0943067
:100E500051F411961C91843099F58181682F70E0CE
:100E6000611B71093FC0843021F0923031F482302F
:100E7000B9F18181882389F12DC011961C911197B8
:100E80008230F1F081811817D9F412962D913C919E
:100E90001397828193818217930794F0281739075B
:100EA000BCF014968D919D910D90BC91A02D248144
:100EB000358146815781281739074A075B0718F49F
:100EC000112341F00AC082179307A407B50740F425
:100ED000112319F061E070E005C06FEF7FEF02C0F1
:100EE00060E070E0CB011F9108951F920F920FB642
:100EF0000F9211248F93EF93FF93DF93CF93CDB78E
:100F0000DEB781E080937901ECE2F0E080818093AC
:100F10007801CF91DF91FF91EF918F910F900FBEEC
:100F20000F901F901895DF93CF9300D000D0CDB7CE
:100F3000DEB79C838B831A821982EBE2F0E082E0B9
:100F40008083EAE2F0E088E18083AAE2B0E0EAE2AE
:100F5000F0E08081282F2F77EB81FC8184818295BE
:100F60008F708170882F90E09695982F882797959D
:100F70008795822B8C93E0E4F0E080E88083A0E406
:100F8000B0E0E0E4F0E08081282F217CEB81FC815F
:100F900084818370882F90E082959295907F982726
:100FA000807F9827282BEB81FC8184818295869510
:100FB00087708170882F90E0880F991F880F991F84
:100FC000880F991F282BEB81FC818481869586955B
:100FD0008370882F90E0880F991F822B8C93EB8170
:100FE000FC8180819181A281B381880F991FAA1F02
:100FF000BB1F880F991FAA1FBB1F880F991FAA1F0D
:10100000BB1F9C01AD0180E492E4AFE0B0E0BC0105
:10101000CD010E940D1CDA01C90101979A838983D1
:10102000E0E4F0E089819A81892F99278083E9E2C1
:10103000F0E0898180830F900F900F900F90CF91F7
:10104000DF910895DF93CF930F92CDB7DEB78983F9
:10105000EBE2F0E08081882F90E080729070009742
:10106000B9F3ECE2F0E0898180830F90CF91DF91BA
:101070000895DF93CF93CDB7DEB7809179018823B0
:10108000E1F31092790180917801CF91DF91089579
:10109000DF93CF9300D00F92CDB7DEB79B838A83C7
:1010A00019820EC08981282F30E08A819B81FC0142
:1010B000E20FF31F80810E94220889818F5F89835C
:1010C0008981282F30E08A819B81FC01E20FF31F88
:1010D0008081882339F70F900F900F90CF91DF9187
:1010E00008950F931F93DF93CF9300D00F92CDB746
:1010F000DEB79B838A8319828981282F30E08A8119
:101100009B818C01020F131F0E943908F801808314
:101110000FC089818F5F89838981282F30E08A8180
:101120009B818C01020F131F0E943908F8018083F4
:101130008981282F30E08A819B81FC01E20FF31F17
:101140008081833231F78981282F30E08A819B8129
:10115000FC01E20FF31F10820F900F900F90CF91C0
:10116000DF911F910F910895CF92DF92EF92FF923E
:101170000F931F93DF93CF9300D000D00F92CDB782
:10118000DEB79B838A8381E08983A1E2B0E0EA81B4
:10119000FB81838182958F7083708C93EA81FB81C0
:1011A000838182958F708370282F30E03D832C835C
:1011B0008C819D8181309105C9F0EC81FD81E23007
:1011C000F10534F42C813D812115310561F017C002
:1011D0008C819D818230910561F0EC81FD81E3304D
:1011E000F10551F00CC081E089830BC084E0898354
:1011F00008C080E1898305C080E4898302C081E062
:101200008983CC24DD246894C5F8EA81FB81808140
:1012100091812281A22FAF71B0E0BC01CD010E946B
:1012200007059B01AC0160E074E284E799E40E9449
:101230001903DC01CB01BC01CD0120E030E040E826
:1012400051E40E94C101DC01CB017C018D01898147
:10125000882F90E0880F991FAA2797FDA095BA2F95
:10126000BC01CD010E9455049B01AC01C801B7012E
:101270000E941903DC01CB01BC01CD010E94490091
:10128000DC01CB01F6018083A2E2B0E0EA81FB81C0
:101290008281982F92959695977083818F70880F91
:1012A000880F880F892B880F8C93E6E5F0E084E0A7
:1012B00080830F900F900F900F900F90CF91DF9140
:1012C0001F910F91FF90EF90DF90CF900895DF93E3
:1012D000CF93CDB7DEB7A6E5B0E0E6E5F0E08081DC
:1012E0008170846A8C93E6E5F0E080818823DCF7E6
:1012F000CF91DF910895DF93CF93CDB7DEB7A6E509
:10130000B0E0E6E5F0E08081817084698C93CF9154
:10131000DF910895DF93CF930F92CDB7DEB7898326
:10132000E3E2F0E089818083A6E5B0E0E6E5F0E065
:101330008081817084688C93E6E5F0E08081882369
:10134000DCF70F90CF91DF910895DF93CF93CDB766
:10135000DEB7A6E5B0E0E6E5F0E080818170846C60
:101360008C93E6E5F0E080818823DCF7E3E2F0E0AF
:101370008081CF91DF910895DF93CF93CDB7DEB712
:10138000A6E5B0E0E6E5F0E08081817084688C93AA
:10139000E6E5F0E080818823DCF7E3E2F0E080819D
:1013A000CF91DF910895DF93CF930F92CDB7DEB742
:1013B000E1E2F0E08081887F898389810F90CF917D
:1013C000DF9108951F920F920FB60F9211242F9361
:1013D0003F934F935F936F937F938F939F93AF93BD
:1013E000BF93EF93FF93DF93CF93CDB7DEB7809199
:1013F000800190918101009741F0E2E5F0E01082D8
:10140000E0918001F09181010995CF91DF91FF91E9
:10141000EF91BF91AF919F918F917F916F915F916C
:101420004F913F912F910F900FBE0F901F901895E5
:101430001F920F920FB60F9211242F933F934F9349
:101440005F936F937F938F939F93AF93BF93EF932C
:10145000FF93DF93CF93CDB7DEB780918401909156
:101460008501009749F0ECE4F0E011821082E091F0
:101470008401F09185010995CF91DF91FF91EF9162
:10148000BF91AF919F918F917F916F915F914F919C
:101490003F912F910F900FBE0F901F9018951F92A4
:1014A0000F920FB60F9211242F933F934F935F9398
:1014B0006F937F938F939F93AF93BF93EF93FF931C
:1014C000DF93CF93CDB7DEB78091860190918701EE
:1014D000009749F0ECE4F0E011821082E09186017F
:1014E000F09187010995CF91DF91FF91EF91BF9125
:1014F000AF919F918F917F916F915F914F913F91AC
:101500002F910F900FBE0F901F9018951F920F9262
:101510000FB60F9211242F933F934F935F936F93C6
:101520007F938F939F93AF93BF93EF93FF93DF933B
:10153000CF93CDB7DEB78091880190918901009754
:1015400041F0E4E4F0E01082E0918801F09189013B
:101550000995CF91DF91FF91EF91BF91AF919F914D
:101560008F917F916F915F914F913F912F910F904C
:101570000FBE0F901F9018951F920F920FB60F92EB
:1015800011242F933F934F935F936F937F938F9388
:101590009F93AF93BF93EF93FF93DF93CF93CDB719
:1015A000DEB78091800190918101009761F0E2E5C2
:1015B000F0E080917A0190917B018083E09180013D
:1015C000F09181010995CF91DF91FF91EF91BF914A
:1015D000AF919F918F917F916F915F914F913F91CB
:1015E0002F910F900FBE0F901F9018951F920F9282
:1015F0000FB60F9211242F933F934F935F936F93E6
:101600007F938F939F93AF93BF93EF93FF93DF935A
:10161000CF93CDB7DEB7809182019091830100977F
:1016200079F0ECE4F0E080917C0190917D01882FCD
:1016300090E091838083E0918201F091830109958C
:10164000CF91DF91FF91EF91BF91AF919F918F91DA
:101650007F916F915F914F913F912F910F900FBEAE
:101660000F901F9018951F920F920FB60F92112492
:101670002F933F934F935F936F937F938F939F939A
:10168000AF93BF93EF93FF93DF93CF93CDB7DEB7C5
:101690008091880190918901009761F0E4E4F0E085
:1016A00080917E0190917F018083E0918801F0918B
:1016B00089010995CF91DF91FF91EF91BF91AF9192
:1016C0009F918F917F916F915F914F913F912F915A
:1016D0000F900FBE0F901F901895DF93CF9300D0FF
:1016E00000D0CDB7DEB79A8389837C836B83E98191
:1016F000FA8184818873882309F041C0E2E5F0E033
:101700001082ACE5B0E0E981FA81828193818C930B
:10171000A9E5B0E0E9E5F0E080818C7F82608C9300
:10172000A3E5B0E0E981FA8184818295869586956A
:101730008370882F90E082959295907F9827807F84
:101740009827982F9868E981FA8184818770892B7E
:101750008C938B819C819093810180938001E9819E
:10176000FA818481807C882351F081E063E041E04C
:101770000E94561381E063E040E00E944114E98139
:10178000FA8184818873883039F0E981FA81848113
:101790008873803209F049C0ECE4F0E011821082D5
:1017A000AAE4B0E0E981FA818281938111969C9349
:1017B0008E93A9E5B0E0E9E5F0E08081837C80616B
:1017C0008C93AFE4B0E0E981FA81848182958695BB
:1017D00086958370882F90E00024969587950794CE
:1017E000969587950794982F802D8C608C93AEE406
:1017F000B0E0E981FA818481877088608C938B8165
:101800009C819093850180938401E981FA81848190
:10181000807C882351F083E065E041E00E9456130C
:1018200083E065E040E00E944114E981FA8184810F
:101830008873803309F046C0ECE4F0E01182108236
:10184000AAE4B0E0E981FA818281938111969C93A8
:101850008E93A9E5B0E0E9E5F0E08081837C8860C3
:101860008C93AFE4B0E0E981FA818481829586951A
:1018700086958370882F90E082959295907F982727
:10188000807F98278C608C93AEE4B0E0E981FA8188
:101890008481877088608C938B819C819093870171
:1018A00080938601E981FA818481807C882351F0CC
:1018B00083E064E041E00E94561383E064E040E08E
:1018C0000E944114E981FA8184818873803109F092
:1018D00045C0E2E4F0E088E08083E4E4F0E01082D8
:1018E000A3E4B0E0E981FA81828193818C93A9E538
:1018F000B0E0E9E5F0E080818F7380688C93A5E427
:10190000B0E0E981FA81848182958695869583701D
:10191000882F90E082959295907F9827807F9827D6
:10192000982F9868E981FA8184818770892B8C933C
:101930008B819C819093890180938801E981FA8150
:101940008481807C882351F083E067E041E00E943D
:10195000561383E067E040E00E9441140F900F901F
:101960000F900F90CF91DF910895DF93CF9300D028
:1019700000D0CDB7DEB79A8389837C836B83E981FE
:10198000FA8184818873882339F5E981FA8180811D
:101990009181882F90E090937B0180937A01E2E51A
:1019A000F0E080917A0190917B018083A9E5B0E01D
:1019B000E9E5F0E080818C7F81608C93A3E5B0E065
:1019C000E981FA818481877080688C938B819C8106
:1019D0009093810180938001E981FA8184818873E9
:1019E000883049F5E981FA818081918190937D0168
:1019F00080937C01ECE4F0E080917C0190917D018A
:101A000091838083A9E5B0E0E9E5F0E08081837C03
:101A100084608C93EFE4F0E08CE08083AEE4B0E08F
:101A2000E981FA81848187708C938B819C8190936A
:101A3000830180938201E981FA81848188738031F6
:101A400039F5E981FA8180819181882F90E0909326
:101A50007F0180937E01E4E4F0E080917E0190912B
:101A60007F018083A9E5B0E0E9E5F0E080818F7334
:101A700080648C93A5E4B0E0E981FA818481877069
:101A800080688C938B819C819093890180938801DD
:101A90000F900F900F900F90CF91DF910895DF93EB
:101AA000CF9300D000D0CDB7DEB79A8389837C83F3
:101AB0006B83E981FA8184818873882309F041C0AE
:101AC000E2E5F0E01082ACE5B0E0E981FA818281E4
:101AD00093818C93A9E5B0E0E9E5F0E080818C7F0B
:101AE00082608C93A3E5B0E0E981FA8184818295DC
:101AF000869586958370882F90E082959295907F49
:101B00009827807F9827982F9868E981FA818481A7
:101B10008770892B8C938B819C819093810180931A
:101B20008001E981FA818481807C882351F081E001
:101B300063E041E00E94561381E063E040E00E94D0
:101B40004114E981FA8184818873883039F0E98110
:101B5000FA8184818873803209F049C0ECE4F0E0B6
:101B600011821082AAE4B0E0E981FA818281938136
:101B700011969C938E93A9E5B0E0E9E5F0E08081B1
:101B8000837C80618C93AFE4B0E0E981FA81848149
:101B90008295869586958370882F90E0002496958F
:101BA00087950794969587950794982F802D8C603C
:101BB0008C93AEE4B0E0E981FA818481877088601B
:101BC0008C938B819C819093850180938401E98122
:101BD000FA818481807C882351F083E065E041E0D4
:101BE0000E94561383E065E040E00E944114E981C1
:101BF000FA8184818873803309F046C0ECE4F0E018
:101C000011821082AAE4B0E0E981FA818281938195
:101C100011969C938E93A9E5B0E0E9E5F0E0808110
:101C2000837C88608C93AFE4B0E0E981FA818481A1
:101C30008295869586958370882F90E082959295FF
:101C4000907F9827807F98278C608C93AEE4B0E0DB
:101C5000E981FA818481877088608C938B819C8173
:101C60009093850180938401E981FA818481807C4D
:101C7000882351F083E064E041E00E94561383E042
:101C800064E040E00E9441140F900F900F900F907D
:101C9000CF91DF910895DF93CF9300D000D0CDB7DF
:101CA000DEB79A8389837C836B83E981FA8184819F
:101CB0008873882339F5A2E5B0E0E981FA81808153
:101CC00091818C93A9E5B0E0E9E5F0E080818C7F1B
:101CD00081608C93A3E5B0E0E981FA81848187700B
:101CE00080688C93E981FA8180819181882F90E0CE
:101CF00090937B0180937A018B819C8190938101E9
:101D000080938001E981FA8184818873883049F564
:101D1000ECE4F0E080917C0190917D0191838083DF
:101D2000A9E5B0E0E9E5F0E08081837C84608C93F4
:101D3000EFE4F0E08CE08083AEE4B0E0E981FA818A
:101D4000848187708C93E981FA818081918190935D
:101D50007D0180937C018B819C8190938301809392
:101D600082010F900F900F900F90CF91DF91089507
:101D7000EF92FF920F931F93DF93CF93CDB7DEB710
:101D800060970FB6F894DEBF0FBECDBF988B8F87DC
:101D9000EF85F88985818370882309F0FBC0E2E52F
:101DA000F0E0108282E38E87EF85F88984818436A3
:101DB00068F1EF85F88984E68483EF85F88984816A
:101DC000882F90E0A0E0B0E0BC01CD010E940705A3
:101DD000DC01CB01BC01CD0120E030E048EC52E455
:101DE0000E941903DC01CB01BC01CD0120E030E0F1
:101DF0004FE753E40E941F02DC01CB01BC01CD017F
:101E00000E944900DC01CB018E8728C0EF85F8894C
:101E10008481882F90E0A0E0B0E0BC01CD010E9459
:101E20000705DC01CB01BC01CD0120E030E048EC2E
:101E300052E40E941903DC01CB01BC01CD0120E07A
:101E400030E040E853E40E941F02DC01CB01BC01FA
:101E5000CD010E944900DC01CB018E87ECE5F0E06A
:101E60008E858083A9E5B0E0E9E5F0E080818C7F94
:101E70008C9381E063E041E00E94561381E063E0CF
:101E800040E00E944114EF85F88980819181CC0166
:101E9000A0E0B0E0BC01CD010E940705DC01CB0150
:101EA000BC01CD0120E030E040E853E40E941F0275
:101EB000DC01CB019C01AD0160E074E284E799E4B0
:101EC0000E941903DC01CB01BC01CD010E94490035
:101ED000DC01CB019D878C878C859D85009751F017
:101EE0008C859D858530910528F481E090E09D8763
:101EF0008C8741C08C859D858530910550F08C85FF
:101F00009D858B30910528F482E090E09D878C8739
:101F100032C08C859D858B30910550F08C859D85D8
:101F20008734910528F483E090E09D878C8723C057
:101F30008C859D858734910558F08C859D8521E0A1
:101F40008D32920728F484E090E09D878C8713C03F
:101F50008C859D8521E08D32920758F08C859D857A
:101F600024E08130920728F485E090E09D878C87FB
:101F700002C01D861C86A3E5B0E0EF85F889858147
:101F8000869586958370982F9295907F8C85892B66
:101F900088648C93EF85F88985818370813009F09E
:101FA00037C1ECE4F0E01182108284E690E09B8778
:101FB0008A87EF85F88984818436C8F1EF85F889AE
:101FC00084E68483EF85F8898481882F90E0A0E0FF
:101FD000B0E0BC01CD010E940705DC01CB01BC01D2
:101FE000CD0120E030E048EC52E40E941903DC010E
:101FF000CB017C018D01EF85F88982819381CC0131
:10200000A0E0B0E0BC01CD010E9407059B01AC013E
:10201000C801B7010E941F02DC01CB01BC01CD0148
:102020000E944900DC01CB019B878A8735C0EF8580
:10203000F8898481882F90E0A0E0B0E0BC01CD0158
:102040000E940705DC01CB01BC01CD0120E030E09E
:1020500048EC52E40E941903DC01CB017C018D01A4
:10206000EF85F889828193810196CC01A0E0B0E0F0
:10207000BC01CD010E9407059B01AC01C801B7015D
:102080000E941F02DC01CB01BC01CD010E9449006E
:10209000DC01CB019B878A87A6E4B0E0EF85F88955
:1020A00082819381019611969C938E93EAE4F0E0ED
:1020B0008A859B8591838083A9E5B0E0E9E5F0E01E
:1020C0008081837C8C9383E065E041E00E9456131D
:1020D00083E065E040E00E944114EF85F88980814B
:1020E0009181CC01A0E0B0E0BC01CD010E940705C8
:1020F0007B018C01EF85F889828193810196CC0167
:10210000A0E0B0E0BC01CD010E9407059B01AC013D
:10211000C801B7010E941F02DC01CB019C01AD0187
:1021200060E074E284E799E40E941903DC01CB01CA
:10213000BC01CD010E944900DC01CB019987888751
:1021400088859985009751F0888599858530910516
:1021500028F481E090E09987888741C08885998537
:102160008530910550F0888599858B30910528F44C
:1021700082E090E09987888732C0888599858B3086
:10218000910550F0888599858734910528F483E07E
:1021900090E09987888723C0888599858734910541
:1021A00058F08885998521E08D32920728F484E0E3
:1021B00090E09987888713C08885998521E08D32C2
:1021C000920758F08885998524E08130920728F499
:1021D00085E090E09987888702C019861886AFE469
:1021E000B0E0EF85F8898581869586958370882F84
:1021F00090E0002496958795079496958795079487
:10220000982F802D8A618C93EEE4F0E0888580839E
:10221000EF85F88985818370823009F034C1ECE460
:10222000F0E01182108284E690E09F838E83EF8538
:10223000F88984818436C8F1EF85F88984E684833F
:10224000EF85F8898481882F90E0A0E0B0E0BC01A0
:10225000CD010E940705DC01CB01BC01CD0120E0CE
:1022600030E048EC52E40E941903DC01CB017C0110
:102270008D01EF85F88982819381CC01A0E0B0E0E7
:10228000BC01CD010E9407059B01AC01C801B7014B
:102290000E941F02DC01CB01BC01CD010E9449005C
:1022A000DC01CB019F838E8335C0EF85F889848163
:1022B000882F90E0A0E0B0E0BC01CD010E940705AE
:1022C000DC01CB01BC01CD0120E030E048EC52E460
:1022D0000E941903DC01CB017C018D01EF85F88997
:1022E000828193810196CC01A0E0B0E0BC01CD01D8
:1022F0000E9407059B01AC01C801B7010E941F02A3
:10230000DC01CB01BC01CD010E944900DC01CB0105
:102310009F838E83A6E4B0E0EF85F8898281938164
:10232000019611969C938E93E8E4F0E08E819F8154
:1023300091838083A9E5B0E0E9E5F0E08081837CCA
:102340008C9383E064E041E00E94561383E064E0F4
:1023500040E00E944114EF85F88980819181CC0191
:10236000A0E0B0E0BC01CD010E9407057B018C011B
:10237000EF85F889828193810196CC01A0E0B0E0DD
:10238000BC01CD010E9407059B01AC01C801B7014A
:102390000E941F02DC01CB019C01AD0160E074E2F0
:1023A00084E799E40E941903DC01CB01BC01CD0153
:1023B0000E944900DC01CB019D838C838C819D812F
:1023C000009751F08C819D818530910528F481E042
:1023D00090E09D838C8341C08C819D8185309105E7
:1023E00050F08C819D818B30910528F482E090E043
:1023F0009D838C8332C08C819D818B30910550F000
:102400008C819D818734910528F483E090E09D8341
:102410008C8323C08C819D818734910558F08C81F9
:102420009D8121E08D32920728F484E090E09D8325
:102430008C8313C08C819D8121E08D32920758F0EE
:102440008C819D8124E08130920728F485E090E022
:102450009D838C8302C01D821C82AFE4B0E0EF85B7
:10246000F8898581869586958370882F90E082957E
:102470009295907F9827807F98278A618C93EEE4CD
:10248000F0E08C818083EF85F889858183708330CB
:1024900009F0FFC0E2E4F0E088E08083E4E4F0E0EB
:1024A000108282E38B83EF85F8898481843668F11A
:1024B000EF85F88984E68483EF85F8898481882F05
:1024C00090E0A0E0B0E0BC01CD010E940705DC0176
:1024D000CB01BC01CD0120E030E048EC52E40E9489
:1024E0001903DC01CB01BC01CD0120E030E04FE756
:1024F00053E40E941F02DC01CB01BC01CD010E940C
:102500004900DC01CB018B8328C0EF85F8898481E9
:10251000882F90E0A0E0B0E0BC01CD010E9407054B
:10252000DC01CB01BC01CD0120E030E048EC52E4FD
:102530000E941903DC01CB01BC01CD0120E030E099
:1025400040E853E40E941F02DC01CB01BC01CD0135
:102550000E944900DC01CB018B83E3E4F0E08B8136
:102560008083A9E5B0E0E9E5F0E080818F738C938A
:1025700083E067E041E00E94561383E067E040E0BB
:102580000E944114EF85F88980819181CC01A0E0FF
:10259000B0E0BC01CD010E940705DC01CB01BC010C
:1025A000CD0120E030E040E853E40E941F02DC014E
:1025B000CB019C01AD0160E074E284E799E40E94E4
:1025C0001903DC01CB01BC01CD010E944900DC01F3
:1025D000CB019A83898389819A81009751F08981FF
:1025E0009A818530910528F481E090E09A8389836F
:1025F00041C089819A818530910550F089819A8105
:102600008B30910528F482E090E09A83898332C070
:1026100089819A818B30910550F089819A81873424
:10262000910528F483E090E09A83898323C089810F
:102630009A818734910558F089819A8121E08D3201
:10264000920728F484E090E09A83898313C08981FB
:102650009A8121E08D32920758F089819A8124E095
:102660008130920728F485E090E09A83898302C044
:102670001A821982A5E4B0E0EF85F88985818695F4
:1026800086958370982F9295907F8981892B886495
:102690008C9360960FB6F894DEBF0FBECDBFCF917E
:1026A000DF911F910F91FF90EF900895DF93CF93EB
:1026B00000D000D00F92CDB7DEB789836A834B83F9
:1026C0008A81883008F0D5C08981843008F0D1C073
:1026D0008981282F30E03D832C838C819D8181303E
:1026E000910509F443C02C813D81223031052CF441
:1026F0008C819D81009771F0BCC02C813D8122307E
:10270000310509F45FC08C819D818330910509F406
:1027100085C0AFC08B818130A1F4AAE3B0E0EAE3C9
:10272000F0E08081482F8A81282F30E081E090E01E
:10273000022E02C0880F991F0A94E2F7842B8C9313
:1027400098C0AAE3B0E0EAE3F0E08081482F8A81F4
:10275000282F30E081E090E0022E02C0880F991F00
:102760000A94E2F7809584238C9383C08B81813017
:10277000A1F4A7E3B0E0E7E3F0E08081482F8A818D
:10278000282F30E081E090E0022E02C0880F991FD0
:102790000A94E2F7842B8C936CC0A7E3B0E0E7E3E4
:1027A000F0E08081482F8A81282F30E081E090E09E
:1027B000022E02C0880F991F0A94E2F780958423A5
:1027C0008C9357C08B818130A1F4A4E3B0E0E4E3A3
:1027D000F0E08081482F8A81282F30E081E090E06E
:1027E000022E02C0880F991F0A94E2F7842B8C9363
:1027F00040C0A4E3B0E0E4E3F0E08081482F8A81A8
:10280000282F30E081E090E0022E02C0880F991F4F
:102810000A94E2F7809584238C932BC08B818130BE
:10282000A1F4A1E3B0E0E1E3F0E08081482F8A81E8
:10283000282F30E081E090E0022E02C0880F991F1F
:102840000A94E2F7842B8C9314C0A1E3B0E0E1E397
:10285000F0E08081482F8A81282F30E081E090E0ED
:10286000022E02C0880F991F0A94E2F780958423F4
:102870008C930F900F900F900F900F90CF91DF914E
:102880000895DF93CF9300D000D00F92CDB7DEB77D
:1028900089836A834B838A81883008F0D5C0898117
:1028A000843008F0D1C08981282F30E03D832C830B
:1028B0008C819D818130910509F443C02C813D813B
:1028C000223031052CF48C819D81009771F0BCC0C1
:1028D0002C813D812230310509F45FC08C819D81BE
:1028E0008330910509F485C0AFC08B818130A1F49C
:1028F000ABE3B0E0EBE3F0E08081482F8A81282F42
:1029000030E081E090E0022E02C0880F991F0A9407
:10291000E2F7842B8C9398C0ABE3B0E0EBE3F0E0FC
:102920008081482F8A81282F30E081E090E0022EBC
:1029300002C0880F991F0A94E2F7809584238C9334
:1029400083C08B818130A1F4A8E3B0E0E8E3F0E03C
:102950008081482F8A81282F30E081E090E0022E8C
:1029600002C0880F991F0A94E2F7842B8C936CC0E5
:10297000A8E3B0E0E8E3F0E08081482F8A81282FC7
:1029800030E081E090E0022E02C0880F991F0A9487
:10299000E2F7809584238C9357C08B818130A1F41A
:1029A000A5E3B0E0E5E3F0E08081482F8A81282F9D
:1029B00030E081E090E0022E02C0880F991F0A9457
:1029C000E2F7842B8C9340C0A5E3B0E0E5E3F0E0B0
:1029D0008081482F8A81282F30E081E090E0022E0C
:1029E00002C0880F991F0A94E2F7809584238C9384
:1029F0002BC08B818130A1F4A2E3B0E0E2E3F0E0F0
:102A00008081482F8A81282F30E081E090E0022EDB
:102A100002C0880F991F0A94E2F7842B8C9314C08C
:102A2000A2E3B0E0E2E3F0E08081482F8A81282F22
:102A300030E081E090E0022E02C0880F991F0A94D6
:102A4000E2F7809584238C930F900F900F900F9056
:102A50000F90CF91DF910895DF93CF9300D000D0F6
:102A60000F92CDB7DEB78A836B8319828B81883052
:102A700008F084C08A81843008F080C08A81282FC1
:102A800030E03D832C834C815D814130510579F1EB
:102A90008C819D818230910534F42C813D812115FA
:102AA000310569F06BC04C815D8142305105B9F14F
:102AB0008C819D818330910509F449C05FC0E9E3B1
:102AC000F0E08081282F30E08B81882F90E0A901F1
:102AD00002C0559547958A95E2F7CA0181709070BA
:102AE000882319F081E0898349C0198247C0E6E351
:102AF000F0E08081282F30E08B81882F90E0A901C1
:102B000002C0559547958A95E2F7CA018170907089
:102B1000882319F081E0898331C019822FC0E3E353
:102B2000F0E08081282F30E08B81882F90E0A90190
:102B300002C0559547958A95E2F7CA018170907059
:102B4000882319F081E0898319C0198217C0E0E356
:102B5000F0E08081282F30E08B81882F90E0A90160
:102B600002C0559547958A95E2F7CA018170907029
:102B7000882319F081E0898301C0198289810F902F
:102B80000F900F900F900F90CF91DF910895DF93EA
:102B9000CF9300D000D0CDB7DEB789836A83898117
:102BA000843090F58981282F30E03C832B838B8102
:102BB0009C8181309105D1F02B813C8122303105FF
:102BC0002CF48B819C81009761F01EC02B813C818D
:102BD0002230310581F08B819C818330910581F019
:102BE00013C0EAE3F0E08A8180830EC0E7E3F0E0FF
:102BF0008A81808309C0E4E3F0E08A81808304C095
:102C0000E1E3F0E08A8180830F900F900F900F90A6
:102C1000CF91DF910895DF93CF9300D000D0CDB74F
:102C2000DEB789836A838981843090F58981282F72
:102C300030E03C832B838B819C8181309105D1F0E6
:102C40002B813C81223031052CF48B819C810097B3
:102C500061F01EC02B813C812230310581F08B81D7
:102C60009C818330910581F013C0EBE3F0E08A8111
:102C700080830EC0E8E3F0E08A81808309C0E5E349
:102C8000F0E08A81808304C0E2E3F0E08A818083FF
:102C90000F900F900F900F90CF91DF910895DF93D9
:102CA000CF9300D000D0CDB7DEB78A8319828A8156
:102CB000843090F58A81282F30E03C832B838B81F0
:102CC0009C8181309105D1F02B813C8122303105EE
:102CD0002CF48B819C81009761F01EC02B813C817C
:102CE0002230310581F08B819C818330910581F008
:102CF00013C0E9E3F0E0808189830EC0E6E3F0E0F1
:102D00008081898309C0E3E3F0E08081898304C086
:102D1000E0E3F0E08081898389810F900F900F902C
:102D20000F90CF91DF910895DF93CF93CDB7DEB7AA
:102D300081E067E041E00E94561381E067E040E0F7
:102D40000E944114CF91DF910895DF93CF93CDB7C7
:102D5000DEB781E067E041E00E944114CF91DF914E
:102D60000895DF93CF93CDB7DEB781E067E040E011
:102D70000E944114CF91DF910895DF93CF9300D04B
:102D800000D0CDB7DEB79A8389836B830E94670931
:102D90000E94D309883011F01C8228C089819A8151
:102DA00080709770880F892F881F990B9195806A82
:102DB0000E948A090E94D309883111F01C8216C032
:102DC00089810E948A090E94D309883211F01C82ED
:102DD0000DC08B810E948A090E94D309883211F0AC
:102DE0001C8204C00E947B0981E08C838C810F903F
:102DF0000F900F900F90CF91DF910895DF93CF93B5
:102E000000D000D00F92CDB7DEB79A8389837C8340
:102E10006B830E9467090E94D309883011F01D82DC
:102E200044C089819A8180709770880F892F881F8C
:102E3000990B9195806A0E948A090E94D309883172
:102E400011F01D8232C089810E948A090E94D30933
:102E5000883211F01D8229C00E9467090E94D3099F
:102E6000803111F01D8221C089819A818070977014
:102E7000880F892F881F990B9195816A0E948A0972
:102E80000E94D309803411F01D820FC00E94BC093A
:102E9000EB81FC8180830E94D309883511F01D826B
:102EA00004C00E947B0981E08D838D810F900F907B
:102EB0000F900F900F90CF91DF910895DF93CF93F4
:102EC000CDB7DEB781E060E041E00E94561381E0BB
:102ED00061E041E00E94561381E060E040E00E9422
:102EE000411481E061E040E00E944114CF91DF9104
:102EF0000895DF93CF93CDB7DEB769970FB6F894F7
:102F0000DEBF0FBECDBF8B8B6C8B8B898823F1F41A
:102F100084EF91E09A8389831C821B828C898D8344
:102F20008E818C7F8E838E81837F88608E83CE019D
:102F300001960E94B80E81E060E040E00E944114DA
:102F400081E061E041E00E94411452C08B898130F0
:102F5000F1F484EF91E098878F831A8619868C8923
:102F60008B878C858C7F8C878C85837F88608C8712
:102F7000CE0107960E94B80E81E060E041E00E9419
:102F8000411481E061E040E00E94411431C08B892E
:102F9000823071F5CE010D969E8B8D8BE8E6F1E0C7
:102FA000F88FEF8BF6E0F98FEF89F88D00808F892D
:102FB000988D0196988F8F8BED89FE8900828D897F
:102FC0009E8901969E8B8D8B998D9150998FE98D5D
:102FD000EE2351F7CE010D960E94B80E81E060E01D
:102FE00040E00E94411481E061E040E00E94411411
:102FF00069960FB6F894DEBF0FBECDBFCF91DF91BB
:103000000895DF93CF93CDB7DEB7A6970FB6F894A8
:10301000DEBF0FBECDBFCE010F969E8F8D8FE3E733
:10302000F1E0F8A3EF8FF5E0F9A3EF8DF8A10080B0
:103030008F8D98A1019698A38F8FED8DFE8D0082C4
:103040008D8D9E8D01969E8F8D8F99A1915099A304
:10305000E9A1EE2351F7CE0144969BA38AA3EEE6A5
:10306000F1E0FDA3ECA3F5E0FEA3ECA1FDA100803F
:103070008CA19DA101969DA38CA3EAA1FBA1008236
:103080008AA19BA101969BA38AA39EA191509EA376
:10309000EEA1EE2351F780E8898F8AE18A8F8B8D2C
:1030A000807E86608B8F8B8D8F718B8F8C8D807FD8
:1030B0008A608C8F8C8D8F7C8C8FCE0144962FE90B
:1030C0003AE1B9010E946D0BCE010F960E94930761
:1030D000CE0149960E94B4080E945E170E94941681
:1030E000AFE5B0E0EFE5F0E0808180688C930E946E
:1030F000C01A80918D01853121F481E080938B018C
:1031000002C010928B018FEF0E9422080E943908A2
:10311000803FE1F780918D010E94220880918C010F
:10312000882351F480918B01882331F40E942B195C
:1031300081E080938C01F2CF80918C01882339F457
:1031400080918B01813019F40E94CE19E7CF8091D4
:103150008C01813009F07AC080918B01813009F0B7
:1031600075C00E944A1A80E090E0A8ECB3E48B8717
:103170009C87AD87BE876B857C858D859E8520E08D
:1031800030E04AE753E40E941F02DC01CB018F8349
:103190009887A987BA876F81788589859A8520E085
:1031A00030E040E85FE30E94250488232CF481E0AE
:1031B00090E09E838D833FC06F81788589859A8555
:1031C00020E03FEF4FE757E40E94C50318164CF587
:1031D0006B857C858D859E8520E030E040E251E462
:1031E0000E941F02DC01CB01BC01CD010E944900FD
:1031F000DC01CB019E838D830FC089E190E09C832D
:103200008B838B819C810197F1F79C838B838D81CC
:103210009E8101979E838D838D819E81009769F7A2
:103220007DCF6F81788589859A850E944900DC0170
:10323000CB019E838D838D819E819A838983898131
:103240009A810197F1F79A83898368CF0E948E1A39
:1032500010928C0163CF0F931F93DF93CF93CDB761
:10326000DEB72F970FB6F894DEBF0FBECDBF1D821D
:1032700085C00E943908803FE1F71C820FC08C8115
:10328000082F10E00E943908282FCE010696FC0175
:10329000E00FF11F20838C818F5F8C838C818530C0
:1032A00070F30E943908803FE1F71B820FC08B81C9
:1032B000082F10E00E943908282FCE010B96FC0140
:1032C000E00FF11F20838B818F5F8B838B81853093
:1032D00070F31A8219C08A81282F30E0CE01069639
:1032E000FC01E20FF31F40818A81282F30E0CE01DC
:1032F0000B96FC01E20FF31F8081481711F081E06B
:103300008D838A818F5F8A838A81853020F3198239
:1033100013C08981482F50E08981282F30E0CE01E9
:103320000696FC01E20FF31F8081FA01E057FE4F81
:10333000808389818F5F89838981853050F380E91B
:1033400091E00E94651B8FEF0E9422088D818823E7
:1033500051F481E00E9422080E94390880938B0179
:1033600081E08D830BC08D81813041F480E00E942B
:1033700022080E94390880938B011D8280918B0165
:10338000882309F476CF2F960FB6F894DEBF0FBED0
:10339000CDBFCF91DF911F910F9108950F931F9390
:1033A000DF93CF93CDB7DEB729970FB6F894DEBF82
:1033B0000FBECDBF1C821B825EC00E943908803FB9
:1033C000E1F71A820FC08A81082F10E00E943908A5
:1033D000282FCE010596FC01E00FF11F20838A8182
:1033E0008F5F8A838A81853070F30E94C01A1982A8
:1033F00017C08981282F30E0CE010596FC01E20F2D
:10340000F31F20818981882F90E0FC01E057FE4F57
:103410008081281711F081E08B8389818F5F8983F8
:103420008981853030F38FEF0E9422088B818823B9
:1034300051F481E00E9422080E94390880938C0197
:1034400081E08B830BC08B81813041F480E00E944E
:1034500022080E94390880938C011B8280918C0184
:10346000813069F08C818F5F8C838C81833018F080
:1034700082E080938C018C81833008F49ECF299662
:103480000FB6F894DEBF0FBECDBFCF91DF911F9175
:103490000F910895DF93CF930F92CDB7DEB71982C6
:1034A0000E94CE1980918C01823029F40E948E1ADC
:1034B00010928C012FC00E943908803FE1F70E94D2
:1034C0003908898389818B32D9F481E00E942208EE
:1034D00080E062E30E94791710928A0180918A014C
:1034E0008031E0F381E062E30E94791710928A0153
:1034F00080918A018031E0F382E060E00E947917D8
:1035000089818D3239F480E00E94220810928B016B
:103510000E942B190F90CF91DF910895DF93CF93E5
:10352000CDB7DEB70E94A51610928A0180918A015C
:103530008B30E0F30E94B116CF91DF910895DF93B5
:10354000CF93CDB7DEB780918E0190918F01019618
:1035500090938F0180938E0180918E0190918F01C5
:1035600021E0843F920748F080918A018F5F809329
:103570008A0110928F0110928E01CF91DF910895F0
:10358000DF93CF93CDB7DEB72F970FB6F894DEBF9A
:103590000FBECDBF2DE831E081E193E0B9010E947B
:1035A000FE161F8685C080E090E0A0E2B1E48B8724
:1035B0009C87AD87BE876B857C858D859E8520E049
:1035C00030E04AE753E40E941F02DC01CB018F8305
:1035D0009887A987BA876F81788589859A8520E041
:1035E00030E040E85FE30E94250488232CF481E06A
:1035F00090E09E838D833FC06F81788589859A8511
:1036000020E03FEF4FE757E40E94C50318164CF542
:103610006B857C858D859E8520E030E040E251E41D
:103620000E941F02DC01CB01BC01CD010E944900B8
:10363000DC01CB019E838D830FC089E190E09C83E8
:103640008B838B819C810197F1F79C838B838D8188
:103650009E8101979E838D838D819E81009769F75E
:1036600014C06F81788589859A850E944900DC01A4
:10367000CB019E838D838D819E819A8389838981ED
:103680009A810197F1F79A8389838F85882F90E03B
:103690008E5E9C4FAC018F85882F90E09C01205757
:1036A0003E4FCA01B9010E94FE168F858F5F8F873A
:1036B0008F85853008F477CF2F960FB6F894DEBF4C
:1036C0000FBECDBFCF91DF910895DF93CF93CDB7DC
:1036D000DEB761970FB6F894DEBF0FBECDBF998BF2
:1036E000888B1F8688C08F85882F90E08E5E9C4FC8
:1036F000AC018F85282F30E088899989FC01E20F81
:10370000F31F2081CA01622F0E94BD1680E090E065
:10371000A0E2B1E48B879C87AD87BE876B857C85F3
:103720008D859E8520E030E04AE753E40E941F0229
:10373000DC01CB018F839887A987BA876F81788551
:1037400089859A8520E030E040E85FE30E94250407
:1037500088232CF481E090E09E838D833FC06F81AD
:10376000788589859A8520E03FEF4FE757E40E94EE
:10377000C50318164CF56B857C858D859E8520E0EC
:1037800030E040E251E40E941F02DC01CB01BC01A9
:10379000CD010E944900DC01CB019E838D830FC0C7
:1037A00089E190E09C838B838B819C810197F1F769
:1037B0009C838B838D819E8101979E838D838D81D8
:1037C0009E81009769F714C06F81788589859A85F5
:1037D0000E944900DC01CB019E838D838D819E81F7
:1037E0009A83898389819A810197F1F79A838983E2
:1037F0008F858F5F8F878F85853008F474CF81E147
:1038000093E065E10E94BD1661960FB6F894DEBFA5
:103810000FBECDBFCF91DF910895A1E21A2EAA1B52
:10382000BB1BFD010DC0AA1FBB1FEE1FFF1FA21770
:10383000B307E407F50720F0A21BB30BE40BF50B6D
:10384000661F771F881F991F1A9469F760957095F6
:10385000809590959B01AC01BD01CF0108952F92F9
:103860003F924F925F926F927F928F929F92AF9210
:10387000BF92CF92DF92EF92FF920F931F93CF935D
:10388000DF93CDB7DEB7CA1BDB0B0FB6F894DEBFF4
:103890000FBECDBF09942A88398848885F846E841A
:1038A0007D848C849B84AA84B984C884DF80EE8064
:1038B000FD800C811B81AA81B981CE0FD11D0FB66D
:1038C000F894DEBF0FBECDBFED010895F894FFCF91
:1038D00000000000000000000001020203030303D7
:1038E0000404040404040404050505050505050590
:1038F0000505050505050505060606060606060670
:103900000606060606060606060606060606060657
:10391000060606060606060607070707070707073F
:103920000707070707070707070707070707070727
:103930000707070707070707070707070707070717
:103940000707070707070707070707070707070707
:1039500007070707070707070808080808080808EF
:1039600008080808080808080808080808080808D7
:1039700008080808080808080808080808080808C7
:1039800008080808080808080808080808080808B7
:1039900008080808080808080808080808080808A7
:1039A0000808080808080808080808080808080897
:1039B0000808080808080808080808080808080887
:1039C0000808080808080808080808080808080877
:1039D0000808080808080808F401000000080000AA
:0839E000FA000A802500001C1A
:00000001FF
